:020000022000DC
:1060000000F0002019620200016202000362020037
:10601000056202000762020009620200000000003F
:106020000000000000000000000000000B62020001
:106030000D620200000000000F6202001162020007
:106040001362020013620200E9EC0200512F040007
:1060500013620200136202009D2604001362020014
:106060001362020013620200851203001362020031
:106070001362020013620200136202001362020044
:10608000136202001D3904008D58030013620200E0
:106090008139040013620200F51F0400136202003C
:1060A0001362020013620200136202001362020014
:1060B00013620200136202000000000000000000F2
:1060C00013620200136202001362020013620200F4
:1060D000136202001362020013620200000000005B
:1060E00000000000000000000000000000000000B0
:1060F00000000000000000000000000000000000A0
:10610000000000000000000000000000000000008F
:10611000000000000000000000000000000000007F
:10612000000000000000000000000000000000006F
:10613000000000000000000000000000000000005F
:10614000000000000000000000000000000000004F
:10615000000000000000000000000000000000003F
:10616000000000000000000000000000000000002F
:10617000000000000000000000000000000000001F
:10618000000000000000000000000000000000000F
:1061900000000000000000000000000000000000FF
:1061A00000000000000000000000000000000000EF
:1061B00000000000000000000000000000000000DF
:1061C00000000000000000000000000000000000CF
:1061D00000000000000000000000000000000000BF
:1061E00000000000000000000000000000000000AF
:1061F000000000000000000000000000000000009F
:10620000FEE7FEE7FEE7FEE7FEE7FEE7FEE7FEE766
:10621000FEE7FEE700F002B8FFF7FCBF08484FF0CA
:10622000070188438546074880470748016841F4CD
:1062300070010160BFF34F8FBFF36F8F00F006B89E
:1062400000F000207131040088ED00E03849394841
:106250000A1A02D0072291438D46374937480A1A55
:1062600006D00722914381F30988022282F3148821
:1062700033483449344A00F03CF834483449354A0C
:1062800000F037F834483549354A00F032F83548DF
:106290003549364A00F02DF835483649364A00F07F
:1062A00028F836483649374A00F023F83648374947
:1062B000374A00F01EF837483749002200F031F81D
:1062C00036483749002200F02CF836483649091A7A
:1062D00023F0F5F924482549884205D002680430A6
:1062E00003B4904703BCF7E7002000212F4A9047F2
:1062F000FEE7884214D0521A12D003460B431343D0
:106300000324234206D1036804300B600431043AAD
:10631000F9D17047037801300B700131013AF9D19E
:106320007047884202D002700130FAE770470000DF
:1063300000F0002000E8002000F0002000F0002025
:106340008CD60400F02D0020742F0020B0630200D2
:10635000B06302007C9904008CD60400F02D00206C
:10636000F02D0020989D0400989D0400989D040045
:10637000989D0400989D0400989D0400989D040039
:10638000989D040089D6040010D80400742F0020C2
:10639000742F0020742F0020686B0020686B002091
:1063A000686B0020686B0020686F0020AFD102008E
:1063B000844608468A421BD2530902F01F0201217B
:1063C00001FA02F252425CF823100A4042B901334A
:1063D00000F11F02B3EB521F0AD25CF82320F5E74D
:1063E00092FAA2F2B2FA82F202F01F0202EB43101A
:1063F000704700004FF6FF7399420CD00C4B00EB36
:10640000400203EB4202D27800EB400003EB400372
:106410000132DA707047064B00EB400203EB420298
:10642000927800EB400003EB400301329A70704712
:10643000E42F002010B483B001911B4B00EB40010E
:1064400003EB4101897800EB400C03EB4C03DB7854
:10645000D94201D0002303E0002021E001339BB2A8
:10646000032B1CD8C3EBC30C104901EBCC01898969
:106470008142F3D10D4901EBCC01B1F802C0BDF866
:1064800006108C45EAD1C3EBC301084C34F831C087
:10649000BDF804108C45E1D11380012000E00020FC
:1064A00003B05DF8044B7047E42F0020EC2F002070
:1064B00082B000230093027802F0C003802B21D029
:1064C00015D80BB1402B05D1ADF800204FF6FF7366
:1064D000ADF80230009B01930020BDF8043063F357
:1064E0000F00BDF8063063F31F4002B07047C02BA9
:1064F000F0D1ADF800204378827843EA0223ADF86A
:106500000230E7E7437843EA0223ADF800304FF664
:10651000FF73ADF80230DDE782B00190BDF80630C0
:106520004FF6FF72934207D0BDF804200A704B70FB
:106530001B0A8B7002B07047BDF80430FF2B03D9E3
:106540001A0A0A704B70F5E70B70F3E782B00190FE
:10655000BDF806204FF6FF739A4214D1BDF804002F
:10656000FF2807D900F44040B0F5004F14BF0020C9
:10657000012010E07F2804D801D001200BE000208A
:1065800009E0002007E0BDF8040020F03F00C0282B
:1065900014BF0020012002B0704770B506460D46BA
:1065A000002400E00134AC4207D256F83400FFF773
:1065B000CDFF03460028F5D100E00123184670BD49
:1065C00000B583B00191002300E00133818D994231
:1065D00011D9816A01EBC30E31F833C0BDF8041044
:1065E0008C45F2D1BEF802C0BDF806108C45ECD146
:1065F0001360012000E0002003B05DF804FB000000
:10660000C289012A01D900207047084B03EBC2035D
:1066100004334A0953F8222001F01F0101238B4063
:106620001A4201D00120704700207047D42F00206B
:1066300010B483B00190BDF80630A3F540539BB26F
:10664000012B24D8134A127812F0040F1DD0002019
:1066500003B05DF8044B704751F82200C44302EBCD
:10666000430C0D4800EB8C0044600132002AF3D04B
:10667000094911F8332022F0040001F8330022F018
:10668000060201F833200020E2E70022EEE70520B1
:10669000DEE700BFC42F0020D42F002082B001907D
:1066A000BDF80630B3F5805F1CD1124A127812F0A3
:1066B000040F1AD1A3F580539BB2098803EB430062
:1066C0000D4A32F81020914211D10B4A02EB4000E2
:1066D000417921F0040C80F805C021F006014171D8
:1066E000002000E0052002B070470020FBE70B20EF
:1066F000F9E700BFC42F0020E42F002082B00190F2
:10670000BDF80630B3F5804F05D10A78034B1A70F7
:10671000002002B070470520FBE700BFF02D0020ED
:1067200010B582B001900C46BDF80630012B07D1A0
:10673000012363800423A3800223238002B010BDC1
:10674000784606F033FDF3E710B582B001900C46B1
:10675000BDF80630012B0FD16388012B10D1A3881F
:10676000042B10D12388022B0FD1094A137843F050
:1067700001031370002004E0784606F017FDEBE7F4
:106780000B2002B010BD0B20FBE70B20F9E700BF88
:10679000C42F002030B583B001900D46BDF80640EF
:1067A000A4F54054A4B2012C01D800230DE0784692
:1067B00006F0FCFCF9E703EB4401064A02EB810218
:1067C0005268D24345F823200133002BF3D003B0A5
:1067D00030BD00BFD42F002030B583B001900D46EE
:1067E000BDF80640B4F5805F0AD1A4F58054A4B288
:1067F00004EB4404044B33F814302B8003B030BD59
:10680000784606F0D3FCF0E7E42F002010B582B004
:1068100001900C46BDF80630B3F5804F04D1044B0F
:106820001B78237002B010BD784606F0BFFCF6E777
:10683000F02D0020F8B504460D4616461F4653B10C
:106840002B89B3F5BE7F0AD309233B603868B0FAC1
:1068500080F04009F8BD784606F0A8FCF0E7032C6C
:106860000ED8C4EBC402184B03EBC20393F83430C8
:1068700013F0010F04D0144B03EBC2039B8913B137
:1068800005233B60E2E736B12868FFF75FFEB8B941
:1068900007233B60DAE7C4EBC4020B4B03EBC203F4
:1068A0009A884FF6FF739A42F2D0C4EBC404064BA9
:1068B00003EBC403DA884FF6FF739A42E4D1E7E7AB
:1068C00000233B60C2E700BFEC2F0020F8B50E4666
:1068D00017461D460C4603281AD8DFE800F00502CB
:1068E000101401EB81004400BDF81830B4FBF3F044
:1068F0003F2816D800233B7076B92B70F8BD642072
:1069000000FB01F4F0E741F2707000FB01F4EBE7EB
:10691000784606F04BFCE7E7012838BF01202870D5
:10692000ECE740F27623984208D801233B7003F14C
:10693000CC33A3FB0030C0082870DFE741F69C038E
:10694000984207D802233B70064BA3FB0030400956
:106950002870D3E703233B70034BA3FB0030C0092F
:106960002870CBE71F85EB51F119760530B583B060
:1069700001900D46BDF80640A4F50054A4B2032CC6
:1069800011D8C4EBC4040A4A02EBC40352F8342001
:106990005C689868D9682A606C60A860E9601A69C8
:1069A0002A6103B030BD784606F000FCE9E700BF7D
:1069B000EC2F002070B582B00190BDF80630A3F531
:1069C00000539BB2032B45D8284A127812F0040FCB
:1069D00042D1B1F80CC0C3EBC300254A02EBC002A0
:1069E000928994453BD10888C3EBC302204C34F80C
:1069F0003220904235D14C88C3EBC3001C4A02EBD5
:106A0000C002528894422ED1CC89194A02EBC002AE
:106A1000D289944201D00B201FE08446144800EB39
:106A2000CC020C684E688D68D1F80CE040F83C4010
:106A300056609560C2F80CE00C69146192F834104D
:106A400021F0040482F8344021F0060182F8341069
:106A5000002002E0052000E0002002B070BD0B2005
:106A6000FBE70B20F9E70B20F7E700BFC42F00205E
:106A7000EC2F002038B50446C0884FF6FF739842CB
:106A80001AD1E389022B1FD0114D05EBC305043544
:106A9000002206212846FFF78BFC0446062C11D065
:106AA000A0B203F0E1FD034678B9621C0621284636
:106AB000FFF77EFC0446F1E703F078FD034600286B
:106AC000DFD002E0002300E00023184638BD00BFFD
:106AD000D42F00200D4B1B7813F0040F07D10C4A64
:106AE00012F8303043F0040302F83030704700B53C
:106AF00083B0084B1B68019300F54050ADF80600C9
:106B0000019812F030FA03B05DF804FBC42F0020A6
:106B1000D42F0020F0C50400184B1B7813F0040F8D
:106B200012D000B583B0164B1B68009300F540539C
:106B3000ADF8023000237BB101A9009812F0E2F910
:106B4000C0B903B05DF804FB0E4A12F8303043F0D0
:106B5000020302F83030704703EB4001094A02EBB0
:106B600081025268D24302A901EB830141F8042C4F
:106B70000133E0E7784606F019FBE2E7C42F002076
:106B8000F0C50400D42F0020154B1B7813F0040F20
:106B90000DD1144B00EB400203EB4202527900EBA3
:106BA000400003EB400342F002025A71704700B507
:106BB00083B00D4B5B68019300F58053ADF8063050
:106BC00000EB4000074901EB4001019812F09AF9EF
:106BD00010B903B05DF804FB784606F0E7FAF8E771
:106BE000C42F0020E42F0020F0C50400164B1B78B2
:106BF00013F0040F0FD1154BC0EBC00203EBC20220
:106C000092F83420C0EBC00003EBC00342F0020254
:106C100083F83420704700B583B00D4B9B68019317
:106C200000F50053ADF80630C0EBC000074901EB9A
:106C3000C001019812F066F910B903B05DF804FBC9
:106C4000784606F0B3FAF8E7C42F0020EC2F0020B6
:106C5000F0C5040038B500240FE02046FFF73AFFE6
:106C60002E4A12F8353023F0040102F8351023F0D3
:106C7000060302F835300134A4B2012C0DD82546A4
:106C8000264B13F8343013F0040FE6D113F0020F43
:106C9000E6D02046FFF740FFE2E700240CB10024D5
:106CA0002AE0254604EB44035A001D4B13445B794C
:106CB00013F0020F0DD11A4B05EB45014A001A449F
:106CC000527949000B4422F002025A710134A4B2F5
:106CD000E4E72046FFF758FFEDE7124BC5EBC5018F
:106CE000CA001A4492F83420C9000B4422F0020270
:106CF00083F834200134A4B2032C0ED82546C4EB0B
:106D0000C403DA00074B134493F8343013F0020F36
:106D1000E3D02046FFF76AFFDFE738BDD42F00201D
:106D2000E42F0020EC2F002000B585B00A4BDA6874
:106D30000392103393E803000190ADF8081001A905
:106D4000104612F0DFF810B905B05DF804FB784684
:106D500006F02CFAF8E700BFF0C5040030B583B0A8
:106D600004460D460378012B07D042884FF6FB738B
:106D70009A420CD8002003B030BD01A803F002FCF9
:106D80006388BDF804209B1A2B800120F3E70023C1
:106D90000B800120EFE7000008B5E0220021144835
:106DA00022F056FD134A002313609380124A1360A9
:106DB00053609360D36015E00D49C3EBC300C2007C
:106DC0000A444FF6FF70D08090804FF0020CA2F87A
:106DD0000EC09081C3EBC300C200114401228A841B
:106DE00013449BB2032BE7D9044B0F221A7008BD42
:106DF000EC2F0020E42F0020D42F0020F02D0020C5
:106E00002DE9F04FD3B004460F4693461E46BDF819
:106E1000708151A803F0B6FBC4EBC402664B03EBD0
:106E2000C2039D89BDF846319D4280F0BF80BDF808
:106E300044311D44ADB2BBF1000F2DD0BBF81E9004
:106E4000BBF824A04FAB0BF10C0292E8030083E8DF
:106E500003009BF81CB0BBF1000F09D0C4EBC404C5
:106E6000554B03EBC40393F811B0BBF1FF0F27D0D0
:106E700056B3B8F1000F2BD02422002146A822F0EF
:106E8000E7FC4CAA4946504604F032FA044618B3CF
:106E9000204653B0BDE8F08FC4EBC402464B03EB71
:106EA000C203B3F804904FA9D88803F001FC00286E
:106EB0007ED1BDF83E31002B7CD04FF6FF7ACDE776
:106EC0003E4B93F800B0D3E7784606F06FF9D0E771
:106ED000784606F06BF9CFE746AB4FAA92E803007D
:106EE00083E80300ADF820518DF822B1BA7A8DF80D
:106EF0002321FA7A8DF824214A96ADF82C81FA687C
:106F00004E920021184614F05DFD04460028BFD1C2
:106F10002B4B1B6813F4005F03D02A4B1B68042B18
:106F20000FDC274B1B6813F4005FB1D0254B1B68A7
:106F3000042BADDDB8F1800F28BF4FF08008234649
:106F40001CE0214BD3F804353A8801921F4A009285
:106F500040F2A9121E49052011F03CFDE1E7F25C68
:106F60001C490D68100959002F5C05A800F8137022
:106F700002F00F020131AA5C425401334345EED3C3
:106F800005AA002302F8183003F1804303F5883383
:106F9000D3F804350292104A0192104A00924FF43D
:106FA000D5720B49052011F015FD71E710246FE72C
:106FB00005246DE710246BE7EC2F0020F02D002056
:106FC0000C2F0020082F002000100140EC9D040031
:106FD000E39D0400102F0020009E0400089E040082
:106FE00008B5064B1A7822F001021A70D2B222F0CC
:106FF00002021A70022011F0DDFF08BDC42F00202C
:107000002DE9F04784B0064690461F460C460029FD
:1070100033D003AB424621463046FFF70BFC80B32A
:1070200023680293BDF80A204FF6FF739A422CD0D2
:107030004FF0030A25895544ADB2284612F00BFEE5
:10704000814688B301462068FFF766FA22896168A5
:1070500009EB0A0022F0CAFB00954B464246214646
:107060003046FFF7CDFE0390C8B9C7B10C9BB3B152
:10707000C7F800900C9B1D8004E0784606F096F857
:10708000C7E7039804B0BDE8F087BDF80830FF2BD0
:1070900002D94FF0020ACDE74FF0010ACAE748468D
:1070A00012F0DDFD0398EDE70420EBE7234B1A789F
:1070B00042F004021A70D3B213F0020F3CD110B5A3
:1070C00013F0010F2BD0002412E01D4BC4EBC402BF
:1070D00003EBC202917C21F003019174C4EBC40262
:1070E00003EBC203CAB222F0FC029A740134A4B2C8
:1070F000032C14D8C4EBC402114B03EBC2039A89CE
:107100004FF6FF739A42F1D0C4EBC4000C4B03EB73
:10711000C000FFF7AFFC0028D7D00B2007E0FFF737
:1071200099FD064B1B7813F0010F01D0002010BD14
:10713000FFF7FAFD0520FAE70B207047C42F002067
:10714000EC2F00202DE9F04F8BB0054600F1140420
:10715000204604F05DFA10B90BB0BDE8F08F4FF691
:10716000FF73ADF8223008A92046FFF7F7FD8146EE
:1071700008B100243CE00DF12201204603F006FB9B
:107180000028F6D0784606F011F8F2E7BDF8221094
:107190003046FFF735FA80463DE0414BD3F80435E1
:1071A000404AC4EBC40102EBC10032F831204188EF
:1071B0000696CDF814B0CDF8108003970291019295
:1071C000394A00924FF486623849072011F002FCD8
:1071D0004DE0C4EBC402334B03EBC2039A6A099936
:1071E00002EBC10256681A6B2946A0B2B0470134BF
:1071F000032CB1DCC4EBC4032A4E06EBC306B9F181
:10720000000FC3D0B389BDF82080984514BF4FF05C
:1072100000084FF00108234AC4EBC40302EBC30388
:1072200093F8347007F00107C4EBC403DB000833A4
:107230001344EA8B510953F8211002F01F02012375
:10724000934001EA030ABAF1000B18BF4FF0010B9B
:1072500009AA29683046FFF7B3F90646144B1B68A4
:1072600013F4005F03D0134B1B68062B95DC002F33
:10727000BDD0B8F1000FBAD0BAF1000FB7D0002ED0
:10728000B5D02B7D012BA4D1C4EBC402054B03EB7D
:10729000C2031A6B2946A0B201F0AEFC99E700BF09
:1072A00000100140EC2F0020109E0400E39D04001C
:1072B0000C2F0020082F0020F0B5D1B00446002884
:1072C0005ED02068FFF7F4F84F90BDF83C717F2F37
:1072D00000F09C804E4B1B6813F4005F03D04D4BB5
:1072E0001B68042B50DCE06903F0AAFA0646A0698B
:1072F00003F08FFA4F9A459225680492BDF8122048
:107300004FF6FF739A424BD003231D444695A38842
:107310004F990491BDF812104FF6FF72914245D07B
:1073200003229B1A1FFA83FEADF81CE1237A8DF825
:1073300020316389ADF82231E3684993237C8DF8CD
:107340002831638AADF82A3163694B9394F8203071
:107350008DF83031ADF83261636A4D93ADF8380184
:107360002B4B1B6813F4005F4DD02A4B1B68042B7A
:1073700049DDBEF1800F28BF4FF0800E00232BE0C7
:10738000784605F013FF9CE7234BD3F804350197AB
:10739000224A0092FD222249052011F01BFBA2E7A0
:1073A000FF2F01D90223B0E70123AEE7FF2F01D958
:1073B0000222B6E70122B4E7EA5C1A490C68100918
:1073C000590014F800C004A800F813C002F00F021E
:1073D0000131A25C425401337345EDD304AA00236A
:1073E00002F81E3003F1804303F58833D3F80435E7
:1073F00002920D4A01920D4A00924FF48A72084996
:10740000052011F0E7FA45A8FFF79CFE51B0F0BD4A
:107410000C2F0020082F002000100140689E04005F
:10742000E39D0400102F0020809E0400089E0400AD
:1074300008B5037853B1142B0BD1C388022B08D1A4
:10744000044A137843F00203137002E00430FFF79C
:1074500033FF08BDC42F0020B1B1F0B585B006469A
:1074600014461D460F468AB193B103AB0022FFF7C5
:10747000E1F908B903980CE000952346002239464B
:107480003046FFF7BDFC04E00E2070470E2000E000
:107490000E2005B0F0BD08B501F0FCFB01F04CF882
:1074A000FFF77AFCFFF79CFD08BD000008B5FFF769
:1074B00073FC0C480C4B036014F088FA01F0D6FB07
:1074C00001F01EF801F0C2F9084B1A7822F001020F
:1074D0001A70D2B222F002021A70D2B222F0040262
:1074E0001A7008BDC82F002031740200C42F00207C
:1074F000002800F0B48070B50C460546002900F065
:10750000B080C3681BB18368002B00F0AC804FF6DD
:10751000FF732380EB681BB9AB68002B40F0A5809C
:10752000AB88002B40F0A38004F098F8002841D1EC
:1075300022462968A888FEF77DFF50B12388C3EB57
:10754000C3034E4A02EBC30393F8343013F0010F28
:1075500030D1E968A868FFF720F8002800F089809A
:1075600020884FF6FF7398426AD022882969434BDE
:10757000C2EBC20203EBC20211632288A968C2EB0C
:10758000C20203EBC2029162E9682288C2EBC20226
:1075900003EBC202918522886969C2EBC20203EB48
:1075A000C20291612288C2EBC20103EBC1039A823D
:1075B00000205DE00F205BE098B220804FF6FF7363
:1075C000984258D02D4EC0EBC00006EBC0001A46C2
:1075D000C3802388C3EBC30306EBC3039A802388CD
:1075E000A988C3EBC30306EBC30399812388698889
:1075F000C3EBC30306EBC303598023882988C3EB7D
:10760000C30326F833102388C3EBC30306EBC3037D
:107610005A742988A888FEF7EDFE2388C3EBC302BD
:1076200006EBC20292F83420C3EBC30306EBC30699
:1076300042F0010386F834302088FFF7D7FA94E748
:107640000023032BB9D8C3EBC3010C4A02EBC102E0
:1076500092F8342012F0010FAED00133F1E70E2082
:1076600070470E2004E00E2002E0092000E0052013
:1076700070BD0720FCE70420FAE700BFEC2F0020D4
:1076800070B584B049B304460D460022ADF80E2013
:107690000DF10E03009302ABFFF7B2FC0646A8B94A
:1076A000C4EBC4020E4B03EBC203DB7C13F0070FE9
:1076B0000FD0D10010310A4B1944BDF80E300093A1
:1076C000029B2A460331204601F0D2F8304604B02E
:1076D00070BD029812F0C3FAF8E70E26F6E700BF75
:1076E000EC2F002059B110B582B014460A4644B1BF
:1076F000002300932146FFF783FC02B010BD0E204B
:1077000070470E20F9E7000003281CD808B5C0EB2D
:10771000C002104B03EBC20393F8343013F0010F97
:1077200013D0052913D80B4B03EBC203DB888B4224
:1077300001D100200AE0074B03EBC203D980FFF719
:1077400055FA002002E005207047052008BD0720FB
:10775000FCE700BFEC2F002091B1032812D8C0EB4A
:10776000C0020A4B03EBC20393F8343013F0010F4D
:107770000AD0064B03EBC203DB880B800020704766
:107780000E2070470520704705207047EC2F002021
:10779000032829D808B5C0EBC002164B03EBC2037F
:1077A00093F8343013F0010F20D0124B03EBC203D7
:1077B000DB7C03F0070301F0070293420AD1C0EB20
:1077C000C0020C4B03EBC203DA7CC1F3C403B3EB7E
:1077D000D20F0DD0C0EBC002064B03EBC203D9742D
:1077E000FFF704FA002008BD052070470520FAE7DE
:1077F0000020F8E7EC2F002091B1032812D8C0EB4D
:10780000C0020A4B03EBC20393F8343013F0010FAC
:107810000AD0064B03EBC203DB7C0B7000207047E1
:107820000E2070470520704705207047EC2F002080
:107830008C4619B322B3032824D8C0EBC001144BE3
:1078400003EBC10393F8343013F0010F1CD0104B3D
:1078500003EBC1039B69CBB10D4B03EBC101897CE9
:10786000C1F301018CF80010C0EBC00003EBC003B2
:107870009B7CC3F385031370002070470E20704774
:107880000E2070470520704705207047062070477E
:10789000EC2F002070B584B0054600238DF80F3022
:1078A0008DF80D300DF10D020DF10F01FFF7C0FF46
:1078B000E8B9114EEC00C5EBC50306EBC3039B8C86
:1078C000009303AB0DF10E029DF80D109DF80F0013
:1078D000FEF7FCFF601BC000103030449DF80C2008
:1078E0009DF80E10043000F037FE04B070BD7846ED
:1078F00005F05CFCDDE700BFEC2F0020032818D862
:1079000008B5C0EBC0020F4B03EBC20393F8343051
:1079100013F0010F0FD00B4B03EBC2039B6963B154
:1079200069B1084B03EBC2039984FFF7B3FF002052
:1079300008BD052070470520FAE70620F8E7072074
:10794000F6E700BFEC2F002003283BD810B5044613
:10795000C0EBC000214B03EBC00393F8343013F0AD
:10796000010F31D01D4B03EBC0039B6973B33F2A5A
:107970002ED803292ED8194B03EBC0039B7CB2EB06
:10798000930F07D1154B03EBC0039B7C03F003035C
:107990008B4221D0114BC4EBC40003EBC00090F824
:1079A00012C062F3870C80F812C05FFA8CF261F3A8
:1079B000010282742046FFF76DFF2046FFF716F99B
:1079C000002010BD052070470520FAE70620F8E7E3
:1079D0000720F6E70720F4E70020F2E7EC2F00206D
:1079E00010B5044603F03AFEA8BB032C35D8C4EB0F
:1079F000C4021D4B03EBC20393F8343013F0010FA4
:107A00002DD0194B03EBC203DB89022B29D10023B4
:107A1000012B1ED8154A12F8332012F0010F01D0A5
:107A20000133F5E702F0FB02104901F8332042F080
:107A3000010201F8332098B2C4EBC4020A4B03EBF5
:107A4000C203D881FFF768F82046FFF7CFF800207F
:107A500004E0042002E00F2000E0052010BD052016
:107A6000FCE70020FAE700BFEC2F0020D42F002015
:107A700038B503282ED8C0EBC0021B4B03EBC20362
:107A800093F8343013F0010F27D0174B03EBC203E8
:107A9000DA89022A23D0052923D8144B03EBC20329
:107AA00004334FEA511C53F82C5001F01F010122FE
:107AB0008A4015EA020401D000240CE0154343F883
:107AC0002C50C0EBC000084B03EBC003D889FFF774
:107AD00023F800E00524204638BD0524FBE70624F2
:107AE000F9E70724F7E700BFEC2F0020D42F002090
:107AF000032832D80346C0EBC0001C4A02EBC00288
:107B000092F8342012F0010F29D0184A02EBC0027B
:107B1000D089022825D0052925D810B5144A02EBB2
:107B2000C00204324FEA511C52F82C4001F01F01F0
:107B3000012000FA01F114EA010000D110BD24EA8D
:107B4000010442F82C40C3EBC303084A02EBC30311
:107B5000D889FEF7E1FF0020F0E7052070470520F7
:107B60007047062070470720704700BFEC2F0020A9
:107B7000D42F0020002935D02DE9F84304461546BE
:107B800088468AB3032831D8C0EBC0021C4B03EBF4
:107B9000C20393F8343013F0010F2AD0184B03EBD3
:107BA000C203DB89022B26D0B5F8009000262E8078
:107BB00000E00136052E13D8C4EBC400B7B2394635
:107BC0000F4B03EBC000FEF71BFD0028F1D02B8804
:107BD000994512D928F813702B8801332B80E8E7D8
:107BE000002004E00E2070470E2000E00520BDE8D4
:107BF000F8830520FBE70620F9E70920F7E700BF37
:107C0000EC2F002038B5032822D8C0EBC002144B5B
:107C100003EBC20393F8343013F0010F1BD0082993
:107C20001BD8D30008330E4A13444FEA511C53F8B3
:107C30002C5001F01F0101228A4015EA020401D0F4
:107C4000002406E0154343F82C50FEF7CFFF00E078
:107C50000524204638BD0524FBE70724F9E700BFCB
:107C6000EC2F0020032827D80346C0EBC000154A9C
:107C700002EBC00292F8342012F0010F1ED0082946
:107C80001ED810B5C20008320E4802444FEA511CFB
:107C900052F82C4001F01F01012000FA01F114EA12
:107CA000010000D110BD24EA010442F82C4018461E
:107CB000FEF79CFF0020F5E7052070470520704780
:107CC00007207047EC2F002081B330B58E467AB381
:107CD00003282FD8C0EBC001194B03EBC10393F865
:107CE000343013F0010F27D015880021118000E0F7
:107CF0000131072918D8C0EBC003DB000833104C52
:107D000023444C0953F8244001F01F0C012303FACB
:107D10000CF31C42ECD013889D420FD92EF813109F
:107D2000138801331380E3E7002004E00E2070473E
:107D30000E2000E0052030BD0520FCE70920FAE711
:107D4000EC2F002003281CD808B5C0EBC002104B54
:107D500003EBC20393F8343013F0010F13D008295A
:107D600013D80B4B03EBC2039B888B4201D100203D
:107D70000AE0074B03EBC2039980FEF737FF0020B0
:107D800002E005207047052008BD0720FCE700BF82
:107D9000EC2F002091B1032812D8C0EBC0020A4B8F
:107DA00003EBC20393F8343013F0010F0AD0064BF3
:107DB00003EBC2039B880B80002070470E207047A6
:107DC0000520704705207047EC2F002000B585B0D6
:107DD0008DF8070043B2002B0CDBC2B2012A0BD096
:107DE000064B986903900DF1070111F08BF805B06F
:107DF0005DF804FB0720FAE70720F8E7F0C5040068
:107E0000014B1878704700BFF02D002091B1032876
:107E100012D8C0EBC0020A4B03EBC20393F8343014
:107E200013F0010F0AD0064B03EBC2031B7C0B704F
:107E3000002070470E2070470520704705207047CE
:107E4000EC2F002003281ED808B5C0EBC002114B50
:107E500003EBC20393F8343013F0010F15D081F017
:107E600080037E2B13D90B4B03EBC2035B7C8B424D
:107E700001D100200AE0074B03EBC2035974FEF75F
:107E8000B5FE002002E005207047052008BD072050
:107E9000FCE700BFEC2F002091B1032812D8C0EB03
:107EA000C0020A4B03EBC20393F8343013F0010F06
:107EB0000AD0064B03EBC2035B7C0B7000207047BB
:107EC0000E2070470520704705207047EC2F0020DA
:107ED00041B148B900EB4000044A32F810200A8052
:107EE000002070470E20704705207047E42F0020C7
:107EF00049B150B900EB4000054B03EB40039B78C0
:107F00000B70002070470E2070470520704700BF9F
:107F1000E42F002049B150B900EB4000054B03EBC2
:107F20004003DB780B70002070470E20704705205F
:107F3000704700BFE42F0020C9B1032819D8C0EB57
:107F4000C0020E4B03EBC20393F8343013F0010F61
:107F500011D00A4AC0EBC00302EBC3035B884B801D
:107F6000C0EBC00032F830300B80002070470E208C
:107F70007047052070470520704700BFEC2F002098
:107F800082B0019152B3944650BB4FF6FF731380F9
:107F9000034601E001339BB2032B1CD8C3EBC301A2
:107FA000104A02EBC10292898242F3D10D4A02EBE0
:107FB000C1025188BDF806209142EBD1C3EBC30248
:107FC000084931F83210BDF804209142E2D1ACF8F2
:107FD0000030002000E0052002B070470E20FBE7D3
:107FE0000520F9E7EC2F002031B330B50D462AB358
:107FF00030BB14880023138000E00133032B19D811
:10800000B2F800E0A6451DD2C3EBC30C0E4901EB4C
:10801000CC0191F8341011F0010FEED00A4901EBB8
:10802000CC0189898142E8D125F81E3011880131BF
:108030001180E2E7002030BD0E2070470E20FAE7E5
:108040000520F8E70920F6E7EC2F002091B103287E
:1080500012D8C0EBC0020A4B03EBC20393F83430D2
:1080600013F0010F0AD0064B03EBC2031B6B0B602E
:10807000002070470E20704705207047052070478C
:10808000EC2F0020032844D82DE9F0410446C0EB32
:10809000C002224B03EBC20393F8343013F0010FFC
:1080A00039D0C700D0001030DFF870804044002283
:1080B0001146043000F050FA204600F027FE3E1B27
:1080C00008EBC606F08802F09BFA4FF6FF73F380C8
:1080D000B380F27C22F00702F274D2B222F0F802EE
:1080E000F27400257574B27C65F38702B274D2B263
:1080F00065F30102B274B27D65F38702B275B37D98
:1081000065F30103B3752046FEF770FD2846BDE810
:10811000F081052070470520F9E700BFEC2F002013
:1081200008281AD830B583B00546002401E0013490
:10813000A4B2032C0ED80DF106012046FFF72AFE4B
:108140000028F4D1BDF80630AB42F0D12046FFF74D
:1081500099FFECE7002003B030BD07207047000016
:1081600008B5032809D8DFE800F0020D0406064828
:1081700008BD0648FCE70648FAE7784605F016F819
:108180000020F5E70348F3E7A086010080969800F9
:108190000046C32340420F0038B54D4B1A68937810
:1081A00003F003034B49087883427EDD94684A4B11
:1081B0001B68E41A494B03FB04F4FFF7D1FFB4FB3F
:1081C000F0F0434B1B689B7803F00303022B20D095
:1081D000032B3DD0012B09D103F1CC33A3FB0023AA
:1081E000DB0803EB8303B0EB430F08D014F0B8FABD
:1081F0000446384B1878FFF7B3FF204466E014F0CC
:10820000AFFA00F5742000F51070324B01221A709D
:108210005CE0304B1A783AB9314BA3FB00135B0991
:10822000642101FB130353B1012ADFD12D4BA3FBC2
:108230000023DB0803EB8303B0EB430FD6D114F02C
:108240008FFA034628481844224B02221A703DE058
:10825000204B1A7842B9254BA3FB0013DB0941F2EE
:10826000707101FB1303BBB1012A0BD0022ABDD1EF
:108270001F4BA3FB00235B09C3EB0313B0EB830F7E
:10828000B4D109E01B4BA3FB00139B094FF41671FB
:1082900001FB1303002BE9D114F062FA03461648E0
:1082A00018440C4B03221A7010E014F059FA0446DB
:1082B000074D2B68987800F00300FFF751FF20442A
:1082C0002B689B78C3F30103024A137038BD00BFCB
:1082D000CC300020D4300020D0300020A086010017
:1082E0001F85EB51CDCCCCCC80969800F11976054A
:1082F00089888888B5814E1B0046C32370B5204B02
:108300001B786BB91F4B1B68002B31D0FFF744FF64
:1083100001461B4B1B781BB31B4814F069FC2AE079
:10832000194B5E6814F01CFA0446184D2878FFF7C4
:1083300017FFA41B20442B7843B94CF250339842CA
:1083400004D9134A136801331360DBE74009114B6A
:10835000A3FB00300E4A136803EBD0131360D1E780
:10836000074B01221A700848416014F0FBFB02E041
:10837000034B1B7803B970BD034814F021FCFAE7E6
:10838000D5300020CC300020D8300020D430002060
:10839000D0300020C55A7C0A037803F00303032B76
:1083A0001AD8DFE803F002050C1200788008704745
:1083B000037803F0FC0000EB930040007047007866
:1083C0008008642303FB00F070470078800841F2C6
:1083D000707303FB00F070477B46FFDE38B505463F
:1083E0000230FFF7D9FF0E4B1B681844A8600D4BF5
:1083F0001B68002401E01C46DB681BB19A68821AE6
:10840000002AF8DA1CB133B1E560EB6038BDEB60EF
:10841000044B1D60FAE7E5600023EB60F6E700BF60
:10842000D0300020CC30002030B583B006E0636847
:108430000199284698472046FFF7D0FF104B1C684B
:10844000CCB1A3680F4A1268934204D00D4A126857
:108450009B1A002B0FDA2588E268094B1A6000236B
:10846000019301A92846FFF7F1FD0028DFD07846E7
:1084700004F09CFEDBE7FFF741FF03B030BD00BF17
:10848000CC300020D030002008B5134B1B78032BD4
:108490001ED8DFE803F0020C1116104A13680133EE
:1084A00013600F4B00221A70FFF7BEFF08BD0B4A86
:1084B00013680A331360F4E7084A136864331360DF
:1084C000EFE7064A136803F5BB5310331360E8E780
:1084D000784604F06BFEE4E7D4300020D030002072
:1084E000D530002010B50446FFF778FF034B1B681A
:1084F000A34200D010BDFFF701FFFBE7CC30002006
:10850000084A0023136053609360D3601361536182
:1085100005499160054A1360054A1360054A1370C6
:10852000704700BFD830002089840200D03000207E
:10853000CC300020D530002008B5054B1B7813B98E
:10854000FFF7DEFF08BD034814F03AFBF8E700BF71
:10855000D5300020D830002070B50E4615460446B0
:1085600028B10DF057F8154B1B68002005E0784640
:1085700004F01CFEF5E71846DB680BB1A342FAD104
:10858000A27866F30102A270D2B265F38702A270EC
:1085900013B138B1DA68C26045B903B150B10DF01A
:1085A0005FF870BDD968054A1160F5E72046FFF70E
:1085B00099FFF4E7FFF7A2FEF1E700BFCC300020FF
:1085C00000234FF6FF70032B23D800B504E01846B4
:1085D00001339BB2032B1AD803EBC30291000D4A5F
:1085E0000A4492F83920002AF2D04FF6FF729042E6
:1085F000EDD0084A1144096B00EBC00E4FEA8E0C17
:108600006244126B8A1A002AE2DA1846E0E75DF843
:1086100004FB7047F030002070B5044600EBC00248
:108620001A4B03EB820393F8393033B3174BB3F88B
:10863000A83033B3154A04EBC40302EB83030021D3
:1086400083F83910B2F8A830013B9BB2A2F8A830E9
:1086500023B913464FF6FF72A3F8AA200B4DE6008C
:1086600004EBC40305EB8303986A11F0F8FA26447F
:1086700005EB86050023AB6270BD784604F096FDDD
:10868000D4E7784604F092FDD4E700BFF030002034
:10869000F8B506463E4BB3F8A8301BB106F57A771D
:1086A000002422E0784604F081FDF7E7784604F0E4
:1086B0007DFD05EBC503364A02EB830292F83830A4
:1086C000013BDBB282F83830002B3BD0304B05EB5E
:1086D000C50203EB8202116B526B05EBC50503EB80
:1086E00085030A441A630134A4B2032C2ED825460C
:1086F00004EBC402264B03EB820393F83930002BC2
:10870000F1D0234B03EB82031B6BDB1B002BEADA5C
:10871000910018311E4800EB8202938D926A014449
:108720002046FEF799FE1028C0D80123834048F266
:1087300011121342BDD1174A1342B7D02046FFF79A
:108740006BFFD0E72046FFF767FFCCE7FFF738FF66
:108750000F4BA3F8AA00B3F8A830A3B103280CD894
:108760000B4BB3F8AA2002EBC20203EB82031B6B94
:108770009A1B06D4064BDA60F8BD784604F016FD65
:10878000EEE7F21AF6E7024B0022DA60F4E700BFE8
:10879000F0300020A00201002DE9F84304460F4606
:1087A0001546994613F0DCFF8046154E04EBC40CC9
:1087B00006EB8C0C0CF1180E95E80F008EE80F00FC
:1087C000CCF82890BDF82030ACF82C303B78C3F3BF
:1087D00002038CF838303A78D2084CF2503302FB5E
:1087E0000333CCF834304344CCF8303001238CF8D8
:1087F0003930B6F8A8300133A6F8A830BDE8F883C0
:10880000F030002010B50446FFF7DAFE0E4BB3F847
:10881000AA30834211D00C4BA3F8AA004FF6FF7385
:1088200098420DD00848B0F8AA3003EBC30300EB20
:108830008303196B14F0DCF910BDA342FCD1EAE705
:10884000784604F0B3FCEDE7F030002010B5064C9C
:10885000AC220021204620F0FBFF044BA3604FF622
:10886000FF73A4F8AA3010BDF030002091860200FA
:108870002DE9F04182B004460D4616461F46BDF86C
:10888000208003281FD815B32EB32B7813F0070FC1
:1088900025D047B3B8F1000F29D004EBC402184B20
:1088A00003EB820393F839302BBBCDF800803B46B5
:1088B000324629462046FFF76FFF2046FFF7A2FF0A
:1088C00002B0BDE8F081784604F070FCDBE7784642
:1088D00004F06CFCD8E7784604F068FCD5E77846ED
:1088E00004F064FCD5E7784604F060FCD2E77846F3
:1088F00004F05CFCD1E72046FFF78EFED5E700BF11
:10890000F03000204FF6FF730B80002300E00133AE
:10891000032B0FD80B4A4FF02C0C0CFB032292F8C0
:108920004020002AF3D0074A0CFB0322128B82421C
:10893000EDD10B8008884FF6FF73C01A18BF0120D5
:10894000704700BF9C31002010B4124B2C2202FB58
:1089500000339B6B104C1C4400234FF6FF7001E06A
:1089600001339BB2032B11D80A4A2C2101FB0322AD
:1089700092F84020002AF3D0064A01FB0322926BB2
:10898000111B0029ECDA18461446E9E75DF8044BA0
:10899000704700BF9C3100200087930310B5044648
:1089A000204B2C2202FB003393F84030B3B11D4B17
:1089B000B3F8C830B3B11B4A2C2303FB04230021B6
:1089C00083F84010B2F8C830013B9BB2A2F8C8301F
:1089D00023B3B2F8CA30A34208D010BD784604F0E1
:1089E000E5FBE4E7784604F0E1FBE4E72046FFF727
:1089F000ABFF0C4BA3F8CA004FF6FF73984209D0A7
:108A00000848B0F8CA302C2202FB0303996B14F01B
:108A1000EFF8E2E7784604F0C9FBF1E7014814F00B
:108A2000CFF8DAE79C310020F0B585B006466B4BF5
:108A3000B3F8C8305BB16A4B01221A7006F57A753B
:108A4000664B4FF6FF72A3F8CA20002491E07846E7
:108A500004F0ACFBEFE7614A2C2303FB0423002165
:108A600083F84010B2F8C8100139A2F8C81003A961
:108A7000188BFFF7EBFA48B9584B2C2202FB043352
:108A80005F6B01220399188BB84771E0784604F0B8
:108A90008DFBF1E7514BA3F8CA402C2204FB02F2F4
:108AA00002F11801194413440431188BFEF7E8FD54
:108AB0000746F0B14B4B1B6813F4005F03D04A4BE1
:108AC0001B68042B09DC082F13D0042F2AD00F2F8A
:108AD00028D0784604F06AFB15E0444BD3F80435FF
:108AE0000190434A00928322424905200FF072FF11
:108AF000E9E73A4B2C2202FB0433996BDA6B114401
:108B000099635200DA63354B2C2202FB04331A6B53
:108B10009B6BD31A002B2BDA304B2C2101FB043337
:108B20009A6325E02D4A2C2303FB0422936B03F563
:108B30001C4340339363294BB3F8C830002B49D012
:108B4000264BB3F8CA30032B3ED8244BB3F8CA20C7
:108B50002C2101FB02339B6B9A1B39D41F4BDA602B
:108B60001F4B00221A7005B0F0BD1C4BA3F8CA4081
:108B70000134032CDFD8194B2C2202FB043393F869
:108B80004030002BF4D0154B02FB04331B6B5B1BF6
:108B9000002BFFF660AF114B2C2202FB04339B6BC2
:108BA0005A1B002AFFF676AF0C4AB2F8CA204FF6DD
:108BB000FF718A42D9D009492C2000FB0212926B26
:108BC0009B1A002BD4DAD0E7784604F0EFFABCE722
:108BD000F21AC3E7014B0022DA60C1E79C310020A2
:108BE000683200200C2F0020082F002000100140C8
:108BF000E89E0400D39E040070B582B004460E4681
:108C00001546032815D80CF005FD0DF10601204688
:108C1000FFF778FE48B1BDF80600134B2C2202FB8B
:108C200000339A8D33889A4207D00CF019FD02B0B8
:108C300070BD784604F0BAFAE5E70B4B2C2202FB34
:108C40000033DA8D73889A42EFD1FFF7A7FEBDF8A3
:108C50000620054B2C2101FB02335B6B00222946C9
:108C600020469847E1E700BF9C31002010B5064C34
:108C7000CC220021204620F0EBFD044BA360044BE6
:108C800000221A7010BD00BF9C310020298A02000A
:108C90006832002070B582B00CF0BCFC1A4BB3F8FF
:108CA000C8300BB900240BE017480023A0F8C830E7
:108CB00013F086FFF6E7022201992846B0470134F7
:108CC000032C1CD8104B2C2202FB043393F84030A9
:108CD000002BF4D00C4802FB04F3C1180D8B4E6B33
:108CE00018330021184420F0B3FD01A92846FFF7EE
:108CF000ADF90028DFD0784604F058FADBE70CF035
:108D0000AFFC02B070BD00BF9C31002010B582B036
:108D1000032803D90524204602B010BD04460CF0F8
:108D200079FC0DF102012046FFF7ECFD18B905248E
:108D30000CF096FCEFE7BDF80200FFF72FFE01A94B
:108D40002046FFF783F960B9BDF80220074B2C21BC
:108D500001FB02335B6B02220199204698470024F5
:108D6000E6E7784604F022FAEEE700BF9C310020E7
:108D7000844608468A421BD2530902F01F02012191
:108D800001FA02F252425CF823100A4042B9013360
:108D900000F11F02B3EB521F0AD25CF82320F5E763
:108DA00092FAA2F2B2FA82F202F01F0202EB431030
:108DB000704770B506460C460022FFF7D9FF002524
:108DC00005E00135421C21463046FFF7D1FFA042A5
:108DD000F7D1284670BD000004280BD84209074B84
:108DE00053F8222000F01F00012383401A4203D1D0
:108DF000002070470020704701207047F4320020A7
:108E0000053880B258B94209074B53F8222000F0C8
:108E10001F00012383401A4203D100207047002025
:108E200070470120704700BFF032002010B50446A3
:108E3000FFF7D2FF28B92046FFF7E2FF10B101206B
:108E400000E0012010BD00000A4B1B6813F0010F69
:108E50000AD0094B1B88834208D8074A528813441A
:108E6000984205DB002070470020704700207047C3
:108E700001207047F8320020A437002038B505469D
:108E80000C46FFF7E1FF00B938BD65800123237070
:108E900000236360F8E700000B8833B901334FF615
:108EA000FF720A8003BB10B40AE00023F7E703EB6C
:108EB00083020E4C34F8222082420ED001337BB95B
:108EC0005A090B4C54F8224003F01F0C012202FAFD
:108ED0000CF21442EBD10B80F0E70B80012000E094
:108EE00000205DF8044B704700207047BC3700201D
:108EF000F03200204FF6FF730B800023042B22D8A2
:108F000010B407E00C884FF6FF72944215D001337D
:108F1000042B14D85A090D4C54F8224003F01F0CAE
:108F2000012202FA0CF21442ECD0094A32F8232052
:108F30008242ECD10B80012002E00B80E7E70020A9
:108F40005DF8044B70470020704700BFF4320020EA
:108F5000A83700204FF6FF730B800023032B24D883
:108F600010B407E00C884FF6FF72944217D001331B
:108F7000032B16D85A090E4C54F8224003F01F0C4C
:108F8000012202FA0CF21442ECD0CC2203FB02F2D2
:108F9000084CA25A8242EAD10B80012002E00B80E9
:108FA000E5E700205DF8044B70470020704700BFE4
:108FB000EC320020743400204FF6FF730B80002346
:108FC00073B10020704708330B8001201FE00C882C
:108FD0004FF6FF72944216D103F108020A8012E0A4
:108FE00010B45A090B4C54F8224003F01F0C012214
:108FF00002FA0CF21442EAD0162203FB02F2064CEB
:10900000A25A8242DFD00133002BEAD000205DF863
:10901000044B7047E43200200C3300204FF6FF73FE
:109020000B800023072B24D810B407E00C884FF6E0
:10903000FF72944217D00133072B16D85A090E4CF1
:1090400054F8224003F01F0C012202FA0CF21442E1
:10905000ECD02A2203FB02F2084CA25A8242EAD147
:109060000B80012002E00B80E5E700205DF8044B57
:1090700070470020704700BFE832002024330020F2
:10908000F0B515680023136000E00133072B24D8E6
:109090004FEA531C134C54F82C4003F01F0E4FF0B2
:1090A000010C0CFA0EFC14EA0C0FEED00E4C4FF033
:1090B0002A0C0CFB034CBCF802408442E5D1166834
:1090C000AE420CD02A2403FB04F4074F3C5B21F88A
:1090D0001640146801341460D7E70120F0BD002069
:1090E000FCE700BFE83200202433002070B40D6894
:1090F00000230B6000E00133032B18D85A090E4CF3
:1091000054F8224003F01F0C012202FA0CF2144220
:10911000F1D00C68AC420DD0CC2203FB02F2074E1A
:10912000B25A20F814200A6801320A60E3E70120ED
:1091300070BC70470020FBE7EC3200207434002044
:1091400010B54FEA501C1C4C54F82C4000F01F0E78
:109150004FF0010C0CFA0EFC14EA0C0F2AD0174C3D
:109160004FF0CC0C0CFB004090F8640010B1147868
:109170008C4208D010B1187888420DD013788B42F9
:1091800011D0002010BD1C788C42F3D102990A60E6
:10919000039A13600120F5E7029A13600023039AF3
:1091A00013600120EEE7029B1A600023039A13600C
:1091B0000120E7E70020E5E7EC32002074340020CE
:1091C000014688B100230BB100207047162203FB33
:1091D00002F20648825A8A4201D00133F3E716228E
:1091E00002FB030004307047002070470C3300205E
:1091F000082867D810B4072832D80346354C4FEA00
:10920000531C54F82C4003F01F034FF0010C0CFAD0
:1092100003F31C4258D00C884FF6FF739C4223D0B6
:109220000B88032B52D859092B4C54F8214003F0DA
:109230001F0C012101FA0CF10C4249D0072836D845
:109240002649CC2404FB031393F86430022B1DD071
:109250002A21234B01FB00330433136000202EE04E
:10926000A0F108031F4CCAE7072806D81C4B2A2484
:1092700004FB00335B880B80D2E7A0F108041A4B93
:109280004FF0160C0CFB04335B88F4E7144B2A21D7
:1092900001FB00339B7D002BDAD00B4600FB03F370
:1092A00010330F490B4407331360002007E00838E0
:1092B00016210D4B01FB00330433136000205DF8D1
:1092C000044B7047052070470520F8E70820F6E7B3
:1092D0000820F4E7E8320020EC320020743400204B
:1092E00024330020E43200200C3300200A4B23F802
:1092F000210003EB81030022DA709A704FEA511CBF
:10930000064850F82C3001F01F0101228A40134317
:1093100040F82C30704700BFA8370020F4320020FE
:1093200010B582B001900A46BDF80630A3F580530F
:1093300099B2042911D84B09094850F8234001F08B
:109340001F00012383401C4003D00024204602B0AC
:1093500010BD1088FFF7CAFFF8E70524F6E700BF45
:10936000F432002010B582B001900C46BDF80630F2
:10937000012B0AD1042323800123A38008226280C9
:1093800023810523E38002B010BD784603F00EFF71
:10939000F0E7000010B582B001900C46BDF8063031
:1093A000012B15D12388042B16D1A388012B16D1AC
:1093B0006388082B15D12389012B14D1E388052B51
:1093C00013D10B4A137843F001031370002004E01B
:1093D000784603F0EBFEE5E70B2002B010BD0B2052
:1093E000FBE70B20F9E70B20F7E70B20F5E700BFC1
:1093F000E032002010B582B001900C46BDF8063076
:10940000022B09D1084B1B6813F0010F08D0074B42
:109410001B68236002B010BD784603F0C7FEF1E779
:10942000784603F0C3FEF2E7F8320020A4370020AC
:1094300030B583B001900D46BDF80640A4F58054C8
:10944000A4B2042C0FD863090B4A52F8232004F06D
:109450001F0101238B401A4209D0084B33F82430F6
:109460002B8003B030BD784603F0A0FEEBE77846D2
:1094700003F09CFEF1E700BFF4320020A837002083
:1094800010B5044648B10D4B9C4213D303F5197334
:109490009C4206D94FF6FF700EE0784603F086FE38
:1094A000F1E7A3F51970201A054BA3FB0030C0F3B8
:1094B000CF1001E04FF6FF7010BD00BFE834002070
:1094C000A1A0A0A010B5044608B100200EE0784687
:1094D00003F06CFEF9E7CC2300FB03F32033134ABF
:1094E00013440233A3421FD0013080B2032819D89D
:1094F0000E4BCC2202FB003393F86430002BEAD0F1
:10950000134600FB03F32033084A13440233A342FB
:109510000AD0CC2300FB03F3403313440333A342AC
:10952000E2D101E04FF6FF7010BD00BF743400209F
:1095300010B50446A0B10020072817D82A22144BE2
:1095400002FB00330433A3420ED0134600FB03F3A7
:1095500010330F4A13440733A34205D00130EBE721
:10956000784603F023FEE6E780B210BD094B9C422B
:109570000BD302D94FF6FF70F7E7E31A064AA2FBB6
:1095800003231B09083398B2EFE74FF6FF70ECE7AF
:109590002433002010330020A38B2EBAF8B50446E4
:1095A0000D4616461F461068002872D0FFF7C0FF10
:1095B00000F1010C19E06BB1394B2A2202FB0C338C
:1095C0009B7D3BB1364B02FB0C331B7E6B4013F093
:1095D0003F0F4CD0324B2A2202FB0C335B796B409D
:1095E00013F03F0F4DD00CF1010CBCF1070F53D815
:1095F0004FEA5C1E2B4B53F82E300CF01F024FF03D
:10960000010E0EFA02FE13EA0E0FECD0244B2A22B2
:1096100002FB0C335B88A342E5D1234BCC2202FB37
:10962000043393F86430002BC5D01D4A2A2101FB76
:109630000C22927D002ABED0194A01FB0C225279DD
:109640006A4012F03F0FB6D1154A01FB0C22127E80
:109650006A4012F03F0FAED101FB0CF310495A18CB
:109660000432326010330B4407333B6017E002FBD7
:109670000CF310330A4A13440733336000233B6072
:109680000DE0074B02FB0C330433336000233B60D7
:1096900005E04FF0000CA8E7002333603B60F8BD05
:1096A00024330020E83200207434002030B583B029
:1096B00001900D46BDF80630022B08D10E4B1C68F8
:1096C00014F0010407D00024204603B030BD7846D2
:1096D00003F06CFDF2E7288812F06CFA012808D13B
:1096E0002A68064B1A60044A136843F001031360AA
:1096F000EAE70B24E8E700BFF8320020A437002097
:1097000070B505460C4616464FF6FF730B8012F0F7
:1097100051FA3070022822D0032841D0012841D0CC
:10972000002020E021884FF6FF72914208D003EB21
:1097300083021E4931F82220AA420DD001330FE0E6
:109740005A091B4951F8221003F01F0001228240E0
:109750001142ECD12380F1E72380012003E00023B4
:10976000002BDFD0002070BD124A32F82320AA421D
:1097700013D00133042B17D821884FF6FF72914282
:10978000F2D15A090C4951F8221003F01F000122AE
:1097900082401142E8D12380EBE723800120E2E7F9
:1097A0000023E7E70023E5E70020DCE7BC370020E3
:1097B000F0320020A8370020F432002030B583B00A
:1097C00001900D46BDF80640B4F5005F1DD1A4F52B
:1097D00000539CB2C3F34A11104A52F8211003F00F
:1097E0001F03012202FA03F3194212D004EB84048E
:1097F0000B4B03EB840358689968DA681B6928608F
:109800006960AA60EB6003B030BD784603F0CEFC1F
:10981000DDE7784603F0CAFCE8E700BFF03200203D
:10982000BC37002030B583B001900C46BDF806501F
:10983000B5F5A04F27D1A5F5A0439DB2C3F34A11BA
:10984000154A52F8211003F01F03012202FA03F314
:1098500019421CD0162303FB05F210495318D3F804
:1098600006E0D3F80AC0D3F80E50D3F81200C4F8BB
:1098700004E0C4F808C0E56020618A5A22805B8851
:10988000638003B030BD784603F090FCD3E77846A0
:1098900003F08CFCDEE700BFE43200200C33002034
:1098A000F0B5083B4FF0160E0EFB03FE124C0EEB0C
:1098B000040C176856689568D268CCF80670CCF826
:1098C0000A60CCF80E50CCF8122000228CF805204B
:1098D00001228CF80420ACF8021024F80E004FEAA4
:1098E000531C064850F82C1003F01F039A401143F4
:1098F00040F82C10F0BD00BF0C330020E4320020F3
:1099000010B582B00190BDF80630B3F5A04F19D163
:109910000846A3F5A042C2F34A140C4951F824406A
:1099200002F01F0101228A40144001D000240AE005
:10993000A3F59F43783B9BB2021D41880088FFF747
:10994000AFFF00E00524204602B010BDE432002045
:1099500010B54C1F04EB8402104901EB8201D0F8D2
:1099600000E0D0F804C08268C368C1F804E0C1F820
:1099700008C0CA600B6112F0F1F858B960090849D3
:1099800051F8203004F01F040122A240134341F893
:10999000203010BD784603F009FCEFE7BC3700200B
:1099A000F032002010B582B00190BDF80630B3F55A
:1099B000005F16D10846A3F50052C2F34A140B49C2
:1099C00051F8244002F01F0101228A40144001D0C6
:1099D000002407E0A3F5FF531B3B99B2FFF7B8FF44
:1099E00000E00524204602B010BD00BFF032002088
:1099F00030B583B001900D46BDF80640A4F5405443
:109A0000A4B2032C2DD82422002128461FF020FFC9
:109A10006309234A52F8232004F01F0101238B40DD
:109A20001A4222D01F49CC2204FB02F28B188A5A18
:109A30002A8093F86420AA70D3F802C0D3F80600F5
:109A4000D3F80A10D3F80E20C5F803C0C5F80700F4
:109A5000C5F80B10C5F80F2093F864304BB903B06C
:109A600030BD784603F0A2FBCDE7784603F09EFBBD
:109A7000D8E7CC2303FB04F410340A4B1C44D4F87D
:109A80000200D4F80610D4F80A20D4F80E30C5F835
:109A90001300C5F81710C5F81B20C5F81F30DEE706
:109AA000EC3200207434002070B582B001900C4676
:109AB000BDF80650A5F58045ADB2072D2CD826225D
:109AC000002120461FF0C4FE6B09224A52F82320D1
:109AD00005F01F0101238B401A4221D02A2205FBE9
:109AE00002F21D495318D3F80660D3F80AE0D3F800
:109AF0000EC0D3F81200C4F80560C4F809E0C4F839
:109B00000DC0C4F811008A5A22805A8862809B7D59
:109B100023714BB902B070BD784603F047FBCEE726
:109B2000784603F043FBD9E72A2303FB05F51035FC
:109B30000D44D5F80900D5F80D10D5F81120D5F849
:109B40001530C4F81500C4F81910C4F81D20C4F865
:109B50002130DFE7E832002024330020F8B50D463D
:109B60001446CC2204FB02F202F16801324B194484
:109B700013449967064610B9304B01221A70CC2164
:109B800004FB01F120312C4B19440231284611F01D
:109B90007CFF002844D1CC2104FB01F17831264B15
:109BA00019440431284611F085FF00283CD1CC210E
:109BB00004FB01F19031204B19440431284611F087
:109BC000A5FFA8BBCC2004FB00F01B4FC219D5F8A1
:109BD00000E0D5F804C0A968EB68C2F802E0C2F85A
:109BE00006C0C2F80A10C2F80E3000F110033B4460
:109BF0000021C3F80210C3F80610C3F80A10C3F816
:109C00000E103E5282F8641060090D4951F8203060
:109C100004F01F040122A240134341F82030F8BD94
:109C2000784603F0C3FAB6E7784603F0BFFABEE71A
:109C3000784603F0BBFAC5E77434002008330020EF
:109C4000EC32002070B582B00190BDF80640A4F55A
:109C50004054A4B2032C40D80E466309204A52F85F
:109C6000235004F01F02012393401D4003D0002520
:109C7000284602B070BD31F8030B2246FFF76EFF95
:109C8000B278184BCC2101FB043383F86420002AFE
:109C9000EED001FB04F404F11003124A1344D6F889
:109CA00013E0D6F817C0D6F81B00D6F81F10C3F87B
:109CB00002E0C3F806C0C3F80A00C3F80E1040342F
:109CC0001444E11C06F1130011F0DFFE08B905464B
:109CD000CEE7784603F06AFACAE70525C8E700BF71
:109CE000EC3200207434002030B583B001900D4672
:109CF000BDF8064004F54054A4B231F8030B2246E7
:109D0000FFF72CFFAA78074BCC2101FB043383F823
:109D10006420054A137843F004031370002003B055
:109D200030BD00BF74340020E03200202DE9F04146
:109D300006460D4610461C464FF02A0C0CFB03FC51
:109D40001D4B0CEB0301D2F800805768D2F808E0F5
:109D5000D268C1F80680C1F80A70C1F80EE0C1F8F7
:109D600012200CF1100C9C440023CCF80930CCF8E4
:109D70000D30CCF81130CCF81530053111F07AFEE9
:109D8000B0B90D492A2304FB03F3CA18002010714F
:109D90009075CE5255806009084951F8203004F082
:109DA0001F040122A240134341F82030BDE8F08196
:109DB000784603F0FBF9E4E724330020E832002082
:109DC00070B582B00190BDF80640A4F58044A4B2FD
:109DD000072C42D80E466309214A52F8235004F05A
:109DE0001F02012393401D4003D00025284602B0E6
:109DF00070BD23464A1D49883088FFF797FF3279A6
:109E0000184B2A2101FB04339A75002AEED004FB7B
:109E100001F11031134B1944D6F815C0D6F81900CA
:109E2000D6F81D20D6F82130C1F809C0C1F80D00C0
:109E3000C1F81120C1F81530083106F1150011F0F4
:109E400019FE30B9074B2A2202FB04331A79DA755E
:109E5000CCE7784603F0AAF9F4E70525C6E700BF8A
:109E6000E832002024330020F0B583B001900D4685
:109E7000BDF8063003F50054A4B2072C1AD903F537
:109E800080539CB2072C3BD801271E4A137843F01D
:109E90000403137023462A1D69882888FFF746FFAC
:109EA0002646194B2A2202FB04339F7527B900204E
:109EB00003B0F0BD0027E8E702FB04F41034124BB6
:109EC0001C446869A969EA692B6AC4F80900C4F8E6
:109ED0000D10C4F81120C4F8153004F1080105F183
:109EE000140011F0C7FD38B9074B2A2202FB0633D4
:109EF0001A79DA750020DBE7784603F057F9F3E7C3
:109F00000520D5E7E03200202433002010B584B0CE
:109F1000094A52F8044B03946B4607CA03C31A80DC
:109F2000694620460EF0EEFF08B904B010BD784631
:109F300003F03CF9F9E700BF34C6040030B583B044
:109F400005460C460023ADF800304B0952F823209B
:109F500001F01F0101238B401A420CD00123ADF800
:109F600004302C44ADF80640694601980EF0CAFF53
:109F700028B903B030BD784603F018F9EEE778460B
:109F800003F014F9F5E70000002940D070B582B065
:109F9000054614460E460DF1070201A9FFF7B0FB76
:109FA0002CB99DF80730032B01D010201DE0012CA7
:109FB0001DD078B9BDF804104FF6FF73994228D030
:109FC0002846FFF793F9144ABDF804104FF4805067
:109FD000FFF7B4FFBDF80430338084B90F4A02EBB9
:109FE0008303DA780132DA70002002B070BD9DF888
:109FF0000730032BDDD0012BDBD01020F5E7074A1B
:10A0000002EB83039A7801329A700020EDE70E206C
:10A0100070470420E9E700BFF4320020A837002091
:10A02000284B1B7813F0040F4AD030B583B0254A73
:10A03000137823F004031370234B1B69019300244E
:10A0400000E00134032C18D86309204A52F8232079
:10A0500004F01F0101238B401A42F2D0A5B205F58E
:10A060004053ADF8063001980EF07DFF174A29469F
:10A070004FF44050FFF762FFE3E7134B5B69019336
:10A08000002400E00134072C18D86309104A52F864
:10A09000232004F01F0101238B401A42F2D0A5B205
:10A0A00005F58043ADF8063001980EF05CFF084AD4
:10A0B00029464FF48040FFF741FFE3E703B030BD8E
:10A0C000704700BFE032002034C60400EC320020AC
:10A0D000E83200202DE9F04182B080460C4615465A
:10A0E0004F0952F8273001F01F02012696403342F3
:10A0F00012D00123ADF804304444ADF80640019875
:10A100000EF031FF60B955F8273023EA060345F811
:10A11000273002B0BDE8F081784603F047F8E8E761
:10A12000784603F043F8EEE710B50446FEF754FE18
:10A1300098B92046FEF764FE80B3053CA1B201EB5E
:10A140008102174B03EB82039B7823B9144B03EB7B
:10A150008203DB78C3B1002010BD124B03EB8403F4
:10A160009B7823B90F4B03EB8403DB780BB1002002
:10A17000F2E70C4B002223F824200B4A21464FF42F
:10A180008050FFF7A7FFF2E79300054A0020D05266
:10A19000064A4FF40050FFF79DFFDCE70520DBE7A0
:10A1A000BC370020A8370020F4320020F032002015
:10A1B00008B5064B1A7822F001021A70D2B222F0CA
:10A1C00002021A7001200EF0F5FE08BDE0320020F8
:10A1D00070B506460D464FF6FF730B8000240CB198
:10A1E000002070BD6309104A52F8232004F01F01BB
:10A1F00001238B401A4206D12A884FF6FF739A42F8
:10A200000CD12C800AE004EB8403084800EB8300A7
:10A210001022314604301FF088FA08B10134DEE71D
:10A220002C800120DDE700BFF0320020BC37002089
:10A23000F0B583B04FF6FF73ADF8063000283FD07D
:10A240000C461646074600293CD00DF10601FFF7E3
:10A25000BFFFBDF806305D1DADB270B94FF6FF729D
:10A26000934231D029463846FFF772FB174ABDF8B2
:10A2700006104FF40050FFF761FE258086B9BDF847
:10A280000630134A03EB830102EB8101C97803EB2B
:10A29000830302EB83024B1CD370002003B0F0BD9C
:10A2A000BDF806300A4A03EB830102EB810189788D
:10A2B00003EB830302EB83024B1C93700020EDE75A
:10A2C0000E20EBE70E20E9E70420E7E7F03200205C
:10A2D000BC37002030B583B005460C46486820B135
:10A2E0000DF10601FFF774FF18B94FF6FF73ADF8D3
:10A2F00006300DF106012846FEF7CEFDA0B1BDF8EF
:10A30000063003EB83030A4A02EB8303DB786BB16D
:10A31000658002232370BDF8063003EB8302044BF3
:10A3200003EB82030433636003B030BD0020FBE71E
:10A33000BC37002010B504464FF6FF730B80002396
:10A340000CE05A09144850F8220003F01F0C0122B7
:10A3500002FA0CF2104209D10B800133042B13D8FE
:10A36000B1F800C04FF6FF729445EAD00B4A32F8BC
:10A370002320A242F1D1094A02EB8302D278002ABB
:10A38000EBD00B80012006E00EF046FA4088A04298
:10A3900014BF0020012010BDF4320020A837002097
:10A3A00000B583B0488003230B7000234B60A0F5F9
:10A3B0007F43FC3B032B16D8DFE803F006020919A4
:10A3C000002003B05DF804FB15F000FFF9E701A9D8
:10A3D00001200BF09FFF10B99DF80400F1E77846CB
:10A3E00002F0E4FEF8E701A9FFF7A4FFE9E7012086
:10A3F000E7E70388012B02D0012B0ED07047B0F89D
:10A4000002C0ACF5405292B2032AF5D81429F3D118
:10A41000ACF5C04CA0F802C070474288A2F580435A
:10A420009BB2072BEAD8242905D01429E6D1A2F53E
:10A43000C0424280E2E7A2F5A0424280704700009D
:10A4400008B5094B1B7813F0020F0AD113F0010F66
:10A4500003D0FFF7E5FD002008BDFFF757FD0520FD
:10A46000FAE70B20F8E700BFE032002008B5002231
:10A4700006E0154B03EB82030021D970997001327D
:10A48000042AF6D90023A3B10023104A1360104A0E
:10A490001360104A1360104A1360104A1360104A88
:10A4A0001360104A138053800F4A1370FFF780FE29
:10A4B00008BD03EB830291000C4A0A440021D170CD
:10A4C00091700133DFE700BFA8370020F832002089
:10A4D000F4320020F0320020EC320020E83200207C
:10A4E000E4320020A437002008330020BC370020CD
:10A4F00008B50748074B036011F068FA064B1A7855
:10A5000022F002021A70D2B222F001021A7008BDC3
:10A51000FC32002051AE0200E032002038B5054682
:10A5200070B1164B1C6814F0010424D16B8823B160
:10A53000288811F03FFB012806D00B24204638BDA7
:10A54000784602F033FEECE728886B88184480B226
:10A55000013880B211F02EFB0128EED1074A1368B2
:10A5600043F0010313602968054B196000210220A4
:10A57000FFF7E4FCE2E70F24E0E700BFF832002039
:10A58000A437002010B5044618B1044B1B682360A3
:10A5900010BD784602F00AFEF7E700BFA43700209E
:10A5A00008B50122FFF7F0FC08BD000010B5044615
:10A5B000FEF73CFCB8B1042C0ED9053C0B4B04EB68
:10A5C000840203EB8202927804EB840403EB84039D
:10A5D00001329A70002010BD054B03EB84039A787A
:10A5E00001329A70F6E70520F5E700BFBC3700207E
:10A5F000A837002008B50122FFF71AFE08BD0000A9
:10A6000010B50446FEF7E8FB28B92046FEF7F8FB34
:10A6100058B9052010BD0D4B03EB84039A78013A1D
:10A620009A702046FFF780FDF4E7631F084A03EBAA
:10A63000830102EB8101897803EB830302EB830240
:10A640004B1E93702046FFF76FFDE3E7A83700200D
:10A65000BC37002008B50022FFF796FC08BD08B5FE
:10A660000022FFF7E5FD08BD10B50446FEF7DEFB4E
:10A67000B8B1042C0ED9053C0B4B04EB840203EB60
:10A680008202D27804EB840403EB84030132DA7093
:10A69000002010BD054B03EB8403DA780132DA7039
:10A6A000F6E70520F5E700BFBC370020A8370020FB
:10A6B00021B338B504460D46FEF78EFBA0B92046FF
:10A6C000FEF79EFBE0B1053C0E4B04EB840233F831
:10A6D00022206A8004EB840403EB840304336B6060
:10A6E00002232B70002038BD074B33F8240068800C
:10A6F00011F060FA287000206860F4E70E207047BF
:10A700000520F0E7BC370020A837002010B582B044
:10A710000446FEF78BFB90B369462046FFF7C8FF5F
:10A7200048BB9DF80030032B0BD0022B25D1631FB3
:10A7300003EB8301134A02EB8102D2788AB9052028
:10A740001EE0114B03EB8403DB780BB9052017E007
:10A750000D4A02EB8402013BD3702046FFF7E4FC74
:10A760000EE00B46074901EB8303013ADA702046FD
:10A77000FFF7DAFC04E0002002E00F2000E00520F3
:10A7800002B010BDBC370020A837002070B330B530
:10A7900083B00C46054659B3408811F00BFA0228E5
:10A7A0000FD0032804D0012802D0102003B030BD00
:10A7B00021466888FEF79EFB08B10020F6E70520D9
:10A7C000F4E74FF6FF73ADF80630686850B10DF14D
:10A7D0000601FFF7FDFC38B1BDF8063005332380D4
:10A7E0000020E3E70E20E1E70520DFE70E207047B9
:10A7F0000E20DBE700B583B00DF10601FEF7AAFBE2
:10A8000020B1BDF8060003B05DF804FB4FF6FF7001
:10A81000F9E718B108B5FEF755FE08BD4FF6FF7011
:10A82000704700B583B00DF10601FEF7F7FB20B1CC
:10A83000BDF8060003B05DF804FB4FF6FF70F9E7C2
:10A8400018B108B5FEF774FE08BD4FF6FF707047EB
:10A850000A46A1B1072814D843090C4951F823101E
:10A8600000F01F0C012303FA0CF319420BD02A232A
:10A8700003FB00F0064B1B5A1380002070470E208C
:10A880007047052070470520704700BFE832002060
:10A890002433002008286AD838B504460D4600291C
:10A8A00067D0072830D84309354A52F8232000F0F2
:10A8B0001F0101238B401A425DD0324B2A2202FB3A
:10A8C00000335B88032B17D82E4B2A2202FB04335C
:10A8D0005B8859092C4A52F8211003F01F0301220A
:10A8E00002FA03F319420BD0264B2A2202FB04334F
:10A8F0005B882B80002038BD784602F057FCE3E7E8
:10A90000784602F053FCEFE7A0F1080462091F4B00
:10A9100053F8222004F01F0101238B401A422CD04F
:10A920001B4B162202FB04335B88032B17D8184BF2
:10A93000162202FB04335B885909134A52F821108E
:10A9400003F01F03012202FA03F319420BD0104B4C
:10A95000162202FB04335B882B800020CBE778466D
:10A9600002F024FCE3E7784602F020FCEFE7052044
:10A9700070470E20BFE70520BDE70520BBE700BFFD
:10A98000E832002024330020EC320020E4320020A2
:10A990000C330020002969D070B5C6B005461446B6
:10A9A0000E46002A64D0B0F5805F63D21146FEF7F0
:10A9B000D1FA68B12388CC22324802FB030010226E
:10A9C000314602301EF0B1FE002856D1032052E07D
:10A9D00022884FF6FF739A4251D031462846FFF73E
:10A9E000BDF8294A21884FF44050FFF7A7FA218883
:10A9F000CC2303FB01F18831224B19440431284652
:10AA000010F0F1FF214B1B6813F4802F03D0204B73
:10AA10001B68062B28DC00202DE0F25C1D490C6829
:10AA200010095900255C05A800F8135002F00F0228
:10AA30000131A25C425401330F2BEED905AA002349
:10AA40008DF8343003F1804303F58833D3F80435AF
:10AA50000292114A0192114A009240F627121049BF
:10AA600007200DF0B7FFD6E70023E5E70E2070477B
:10AA70000E2000E0072046B070BD0F20FBE7042049
:10AA8000F9E700BF74340020EC3200200C2F0020C6
:10AA9000082F0020102F0020709F0400089E040043
:10AAA000579F0400032813D843090B4A52F8232068
:10AAB00000F01F0C012303FA0CF31A420AD0074BD3
:10AAC000CC2202FB003393F864300B7000207047F7
:10AAD0000520704705207047EC32002074340020B8
:10AAE00000297CD0F8B504460D46032879D84309DF
:10AAF0003F4A52F8232000F01F0101238B401A42E5
:10AB000071D03C4BCC2202FB003393F8643083B10C
:10AB1000012B6AD1104604FB00F01030354B18446D
:10AB20001022294602301EF000FE00285AD00820CC
:10AB300058E0CC2100FB01F101F110032D4A134430
:10AB40009E1C2F68D5F804E0D5F808C0E868C3F863
:10AB50000270C3F806E0C3F80AC0C3F80E00403123
:10AB600011440331284610F090FF60BBCC2104FB58
:10AB700001F1A0311F4B19440431304610F09AFF07
:10AB800028BBCC2104FB01F1B8311A4B1944043124
:10AB9000284610F0BBFFF0B91648CC2304FB03F3A2
:10ABA000C118012281F8642003F1B001014404318D
:10ABB000C05A10F0F1F90E4A21464FF44050FFF709
:10ABC000BDF900200EE0784602F0F0FACEE77846B4
:10ABD00002F0ECFAD5E7784602F0E8FADCE70E205E
:10ABE00070470520F8BD0520FCE70820FAE700BF04
:10ABF000EC3200207434002003282CD810B5044611
:10AC00004309174A52F8232000F01F0101238B400B
:10AC10001A4222D0134BCC2202FB003393F864304B
:10AC2000012B01D0082010BD0E48134604FB03F38E
:10AC3000C118022281F8642003F1B00101440431FB
:10AC4000C05A10F0A9F9064A21464FF44050FFF7C8
:10AC500075F90020E7E7052070470520E3E700BF0E
:10AC6000EC32002074340020032800F2BC8038B598
:10AC7000054643095E4A52F8232000F01F010123D4
:10AC80008B401A4200F0B1805A4BCC2202FB0033B9
:10AC900093F864300BB9082038BD134600FB03F36A
:10ACA0005449581803F110020A44D2F802E0D2F8CD
:10ACB00006C0D2F80A40D2F80E20C0F802E0C0F870
:10ACC00006C0C0F80A40C0F80E2003F120020A4472
:10ACD00040330B44D91C02322333D1F800E0D1F8C1
:10ACE00004C08C68C868C2F800E0C2F804C0946070
:10ACF000D060103110329942EFD10B781370CC2311
:10AD000005FB03F303F178023A490A44A0330B44EC
:10AD1000191D04322433D1F800E0D1F804C08C6846
:10AD2000C868C2F800E0C2F804C09460D060103176
:10AD300010329942EFD108684B68106053602D487B
:10AD4000CC2305FB03F3C218002482F8644003F10E
:10AD50008801014422460431C05A10F01DF900E078
:10AD60000134072C37D86309234A52F8232004F012
:10AD70001F0101238B401A42F2D0204B2A2202FBF2
:10AD800004335B88AB42EBD11C4B02FB04339B7D4D
:10AD9000002BE5D0134604FB03F318495A1810336F
:10ADA0000B44D3F807E0D3F80BC0D3F80F00D3F867
:10ADB0001310C2F804E0C2F808C0D0601161B3F803
:10ADC00017309382002393750B4AA1B24FF4804051
:10ADD000FFF7B4F8C4E7064A29464FF44050FFF79E
:10ADE000ADF8002058E705207047052054E700BF64
:10ADF000EC32002074340020E8320020243300209C
:10AE000070B504460D469DF81060FEF739FB4FF60D
:10AE1000FF73984202D03034AC4200D070BD56B1BE
:10AE20000A4BCC2202FB003393F86430012BF5D19E
:10AE3000FFF7E2FEF2E7054BCC2202FB003393F86A
:10AE40006430002BEAD0FFF70FFFE7E774340020EF
:10AE50000378042B02D0142B10D0704700B583B0B8
:10AE6000037E427E0092003B18BF01234269816845
:10AE70004068FFF7C5FF03B05DF804FBC388012BF2
:10AE800000D07047024A137843F0020313707047F2
:10AE9000E032002040B108B541B1FEF727F908B112
:10AEA000002008BD0920FCE70E2070470E20F8E7BF
:10AEB000002A67D0F0B5C7B007460C461D461646B7
:10AEC000002B61D010F076FE01285FD1032C60D8F2
:10AED0006309344A52F8232004F01F0101238B40F8
:10AEE0001A4258D00DF58B713846FEF765F80028E8
:10AEF00053D1BDF816314FF6FF7293424FD0324610
:10AF000021463846FEF7CCFCBDF816110839264A12
:10AF100089B24FF4A040FFF711F8BDF816312B802D
:10AF2000224B186810F4802031D0214B1B68062B6F
:10AF300026DC00202BE0F25C1E490C681009590049
:10AF4000255C05A800F8135002F00F020131A25C45
:10AF5000425401330F2BEED905AA00248DF834405A
:10AF6000154BD3F804350292144A0192144A009208
:10AF700040F62722134907200DF02CFD204606E05D
:10AF80000023E7E70E2070470E2000E0102047B0B6
:10AF9000F0BD0520FBE70520F9E70F20F7E70420C7
:10AFA000F5E700BFEC320020E43200200C2F002037
:10AFB000082F0020102F002000100140809F040067
:10AFC000089E0400579F0400002A6AD0F0B5C7B05D
:10AFD00006460C461D461746002B64D0032964D84C
:10AFE0004B09374A52F8232001F01F0101238B40FF
:10AFF0001A425CD0B0F5805F5BD22946FEF70EF8AE
:10B0000068B12B882A222F4802FB03001022394600
:10B0100006301EF08AFB00284ED103204AE02B8820
:10B020004FF6FF72934249D03A4621463046FEF72A
:10B030007DFE254A29884FF48040FEF77FFF234B91
:10B04000186810F4802035D0214B1B68062B26DCB5
:10B0500000202FE0FA5C1F490C6810095900255C9C
:10B0600005A800F8135002F00F020131A25C42540F
:10B0700001330F2BEED905AA00248DF83440164B6E
:10B08000D3F804350292154A0192154A009240F60F
:10B090007622144907200DF09DFC20460AE000238B
:10B0A000E7E70E2070470E2004E0052002E00520AF
:10B0B00000E0072047B0F0BD0F20FBE70420F9E7D0
:10B0C000EC32002024330020E83200200C2F002036
:10B0D000082F0020102F002000100140909F040036
:10B0E000089E0400579F040000295FD010B5044655
:10B0F0000846072C5CD86309304A52F8232004F034
:10B100001F0101238B401A4254D02D4B2A2202FBEF
:10B1100004335A882B4BCC2101FB023393F8643063
:10B12000012B49D1264B2A2202FB04339B7D73B1AC
:10B13000134604FB03F31033214A13441022014643
:10B1400003F109001EF0F1FA98B3082031E01C4B1E
:10B150002A2104FB01F15A184FF0010C82F816C0A5
:10B1600010311944D0F800E0D0F804C08268C368F8
:10B17000C1F809E0C1F80DC0C1F81120C1F81530BF
:10B18000083110F077FC68B90D4B2A2202FB04331A
:10B190001A79DA75094A21464FF48040FEF7CEFE4F
:10B1A000002006E0784602F001F8EDE70E20704737
:10B1B000052010BD0520FCE70820FAE7E832002052
:10B1C0002433002074340020072814D808B5014621
:10B1D00043090A4A52F8232000F01F00012383404C
:10B1E0001A4201D1052008BD044A4FF48040FEF701
:10B1F00071FF0020F7E70520704700BFE83200200C
:10B20000032841D838B505464309224A52F823207D
:10B2100000F01F0101238B401A4237D004211D4842
:10B22000FDF7C7FD012833D0002400E00134072CCE
:10B2300019D86309184A52F8232004F01F0101238A
:10B240008B401A42F2D0154B2A2202FB04335B8852
:10B25000AB42EBD1A0B2FFF7B7FF0028E6D07846AB
:10B2600001F0A4FFE2E7CC2305FB03F30C4AD35A19
:10B2700013B90C4B00221A70064A29464FF440506D
:10B28000FEF728FF002038BD052070470520FAE7AB
:10B290000F20F8E7EC320020E832002024330020B1
:10B2A0007434002008330020B9B18C46BAB10328A9
:10B2B00017D808B543090D4951F8231000F01F0EA7
:10B2C000012303FA0EF319420DD06146FDF7D8FEB3
:10B2D00008B1002008BD0920FCE70E2070470E20B1
:10B2E0007047052070470520F4E700BFEC320020CE
:10B2F00010B582B0ADF806001AB30B4614460432FE
:10B300000DF106011846FDF773FF88B9BDF8063048
:10B310000D4ACC2101FB032292F86420022A09D0B5
:10B32000CC2202FB03F32033074A13440233236089
:10B3300002B010BD01FB03F34033034A134403334F
:10B34000F5E70E20F4E700BF743400200A46B1B1DF
:10B35000032816D843090D4951F8231000F01F0C9B
:10B36000012303FA0CF319420DD0CC2303FB00F0A8
:10B370007030074B184404301060002070470E20D6
:10B380007047052070470520704700BFEC32002051
:10B390007434002010B50C46FFF72CFAACB103282A
:10B3A00015D843090C4A52F8232000F01F0101234D
:10B3B0008B401A420DD0CC2303FB00F02030074B0A
:10B3C000184402302060002010BD0E20FCE705204C
:10B3D000FAE70520F8E700BFEC32002074340020C3
:10B3E000F0B583B0064615460F4669B185B106F043
:10B3F0007F06386880B1FEF765F84FF6FF73984214
:10B4000025D0013084B208E0784601F0CFFEEDE7A8
:10B41000784601F0CBFEEAE7002400233B602B6076
:10B42000032C16D8CC2304FB03F303F120020A49B2
:10B430000A4440330B4401950097033302323146EE
:10B440002046FDF77DFE20B90134A4B2E8E70024D0
:10B45000E3E703B0F0BD00BF74340020F8B5044644
:10B460000E461D46174662B17DB194B12046FFF7E6
:10B47000D0F94FF6FF7290420FD100233B602B6052
:10B48000F8BD784601F092FEEEE7784601F08EFEB8
:10B49000EBE7784601F08AFEE8E72B463A4631466C
:10B4A000FEF77CF8ECE738B504460D4621B120469E
:10B4B000FDF786FE286038BD784601F077FEF6E796
:10B4C000F8B5054616460F4639B156B1386800281A
:10B4D00065D0FDF7D5FF441C22E0784601F066FEFA
:10B4E000F3E7784601F062FEF0E7002D3AD0CC2178
:10B4F00004FB01F188312C4B194408220431284601
:10B500001EF013F970B3CC2104FB01F1B031264BCE
:10B5100019440822043128461EF007F910B30134FB
:10B52000032C3ED86309214A52F8232004F01F015E
:10B5300001238B401A42F2D01B4BCC2202FB043376
:10B5400093F86430002BD0D165B1114604FB01F1B2
:10B550008831154B19440822043128461EF0E5F8BD
:10B560000028DCD1124B1B783BB1CC2304FB03F346
:10B570000D4AD35A8BB9012000E001200A49CC239F
:10B5800004FB03F3CA1882F8740070330B440433CD
:10B590003B6092F864303370F8BD0020EEE7002481
:10B5A000BEE700233B60F7E774340020EC32002054
:10B5B0000833002038B504460D4610F0FBFA022887
:10B5C0000DD0032806D001280ED129462046FDF7CC
:10B5D00055FC38BD29462046FEF7E2FEF9E729462C
:10B5E0002046FEF777FEF4E70020F2E738B50C4678
:10B5F000054630B129B1054B1A882A805B88238023
:10B6000038BD784601F0D2FDF5E700BFA437002031
:10B6100000B583B00378022B0CD0032B03D0012B91
:10B6200001D0002003E069464088FFF7C3FF03B064
:10B630005DF804FB69464068FEF7CAFD0028F6D0B5
:10B64000BDF8003003EB8303034A02EB8303D87891
:10B65000003818BF0120EAE7BC37002000B583B0EE
:10B6600001A8FEF78FFFBDF80400003818BF0120C5
:10B6700003B05DF804FB00004FF0A0434FF4F0125C
:10B68000C3F81825C3F80C25EFF3108372B64DF6F6
:10B69000AD6C00E030BF024B1B78002BFAD1704735
:10B6A000F12D002000B587B044F20103984254D038
:10B6B0001BD8012836D041F20103984268D13F4B94
:10B6C0001B6813F4804F36D03D4B1B68002B32DDD6
:10B6D0003C4BD3F80435029201913B4A009263221D
:10B6E0003A4901200DF076F925E044F20203984230
:10B6F0004ED1324B1B6813F4804F1CD0304B1B686B
:10B70000002B18DD2F4BD3F80435106803905268D6
:10B71000029201912E4A009269222C4901200DF0DB
:10B7200059F908E0254B1B6813F4804F03D0244BD4
:10B730001B68002B04DCFFF79FFF07B05DF804FBDC
:10B74000204BD3F8043502920191224A00926022E4
:10B750001E4901200DF03EF9EDE7184B1B6813F46C
:10B76000804FE8D0164B1B68002BE4DD154BD3F857
:10B770000435106804905068039002919268019219
:10B78000154A00927322114901200DF023F9D2E7E6
:10B790000A4B1B6813F4804FCDD0094B1B68002B5C
:10B7A000C9DD084BD3F8043501910C4A00927B2285
:10B7B000064901200DF00EF9BDE700BF0C2F002057
:10B7C000082F0020001001401CA00400EF9F04007F
:10B7D00040A0040000A0040060A0040084A00400B5
:10B7E0000B4651B15AB1511E0A420AD10360818001
:10B7F00000238360C360184670470E2070470920FD
:10B800007047092070478268C3689B1A82889A42F1
:10B8100001D20420704710B40368C46822409954D0
:10B82000C3680133C36000205DF8044B7047826831
:10B83000C3689A420CD002688368B0F804C003EA77
:10B840000C03D35C0B708368013383600020704766
:10B850000520704710B5044638B1044B4FF47A40C8
:10B8600043F001039847013CF7D110BD50C60400D6
:10B8700007EE900AF4EE677AF1EE10FA0FD19FED21
:10B880000B7AF4EEC77AF1EE10FA0ADC9FED087A33
:10B89000F4EEC77AF1EE10FA05D4012070470020CB
:10B8A0007047002070470020704700BFF902155014
:10B8B000F90215D008B5FFF7CDFF08BD10B584B06B
:10B8C00006EE900A07EE101A07EE902A4C4B1C7BEE
:10B8D000002C3BD14A4B93ED006A36EEC66AB0EEBF
:10B8E000C66AD3ED015A77EE655AF0EEE55A93ED4C
:10B8F000025A37EEC55AB0EEC55AF6EE004AB4EE1B
:10B90000E46AF1EE10FA3BDADFED3E4AF4EEE45A77
:10B91000F1EE10FA34DAF2EE044AB4EEE45AF1EE43
:10B9200010FA2DDA384B1B6813F4804F5ED0374B7A
:10B930001B68042B5ADD364BD3F80435354A009288
:10B940007922354905200DF045F84FE000221A73A1
:10B9500018605960C3ED027A2B4B1B6813F4804FBB
:10B9600044D02A4B1B68032B40DD294BD3F8043508
:10B970002A4A00926422284904200DF02BF835E071
:10B980001F4BC3ED006A83ED017AC3ED027A1E4BB3
:10B990001B6813F4804F28D01C4B1B68032B24DD3D
:10B9A0001B4BD3F80435F6EE007AB4EEE76AF1EEFD
:10B9B00010FA1EDB1A4ADFED137AF4EEE75AF1EEC5
:10B9C00010FA18DB1649F2EE047AB4EEE75AF1EEFB
:10B9D00010FA12DB1248039002910192114A009270
:10B9E00071220D4904200CF0F5FF0124204604B01B
:10B9F00010BD0D4ADFE70C49E5E70B48EBE700BF58
:10BA0000F42D0020CDCC4C3D0C2F0020082F002021
:10BA10000010014070A1040005A1040018A1040059
:10BA2000A0A004003CA10400A4A0040008B5034A9F
:10BA30000021084615F020FB08BD00BF41BA0200F6
:10BA4000A54B1B7803B9704770B588B00DF11F0185
:10BA5000A2481AF094FF60BB9DF91F30002B31DB28
:10BA60009F499E481BF042F9002847D09D4B1B6818
:10BA700013F4804F03D09C4B1B68002B31DC97489C
:10BA80001BF02EF9F0B1974B1B6813F4804F19D0BF
:10BA9000954B1B68002B15DD944BD3F804350190B2
:10BAA000934A009240F26112924901200CF092FFF9
:10BAB00008E08C4B1B6813F4804F03D08A4B1B6843
:10BAC000002B01DC08B070BD884BD3F80435019021
:10BAD000894A009240F20312864901200CF07AFF55
